:100000000EC01DC01CC01BC01AC025C018C017C020
:1000100016C015C014C013C012C011C010C01124E6
:100020001FBECFE5D2E0DEBFCDBF20E0A0E6B0E04E
:1000300001C01D92A137B207E1F757D0C1C0E0CF90
:10004000811105C08FB7F894C2988FBF08958FB7FC
:10005000F894C29AFACF1F920F920FB60F92112402
:100060002F933F938F939F93AF93BF9380916D0096
:1000700090916E00A0916F00B091700030916C0073
:1000800026E0230F2D3768F129E8230F0396A11DE1
:10009000B11D20936C0080936D0090936E00A0932F
:1000A0006F00B09370008091680090916900A091FA
:1000B0006A00B0916B000196A11DB11D809368008C
:1000C00090936900A0936A00B0936B00BF91AF91C9
:1000D0009F918F913F912F910F900FBE0F901F9086
:1000E00018950296A11DB11DD4CF83E08ABD83BFB0
:1000F000789489B7826089BF80E48CBD8FEF8DBD15
:1001000087EC80BF86E886B98FB7F894BB98C39810
:100110008FBF8FB7F894BA9A8FBF81E091DF86B313
:1001200083FB882780F980936600109267002FB7C1
:10013000F89480916D0090916E00A0916F00B09145
:1001400070002FBF40916200509163006091640085
:1001500070916500841B950BA60BB70BC397A10587
:10016000B105E8F2C0916600D0916700C130D105B9
:10017000B1F68091600090916100892BD1F480E00C
:100180005FDFD0936100C09360002FB7F894809137
:100190006D0090916E00A0916F00B09170002FBF24
:1001A0008093620090936300A0936400B093650015
:1001B000B6CF81E045DF1092610010926000E5CF7C
:0401C000F894FFCFE1
:00000001FF
